:1000000045C0000058C0000056C0000054C00000A9
:1000100052C0000050C000004EC000004CC00000A4
:100020004AC0000048C0000046C0000044C00000B4
:1000300042C0000040C000003EC000003CC00000C4
:100040003AC0000038C0000036C0000034C00000D4
:1000500032C0000030C000002EC000002CC00000E4
:100060002AC0000028C0000026C0000024C00000F4
:1000700022C0000020C000001EC000001CC0000004
:100080001AC0000018C0000016C0000011241FBED6
:10009000CFEFD0E1DEBFCDBF11E0A0E0B1E0E8E9F5
:1000A000F1E000E00BBF02C007900D92A431B10750
:1000B000D9F74DD06FC0A4CF88E08BBBC89923C0BF
:1000C000C99924C0CA9925C01BBA80E18BBBC899C5
:1000D00023C0C99924C0CA9925C01BBA80E28BBB32
:1000E000C89923C0C99924C0CA9925C01BBA80E405
:1000F0008BBBC89923C0C99924C0CA9925C01BBA13
:1001000080E090E0089581E090E0089582E090E042
:10011000089583E090E0089584E090E0089585E0FC
:1001200090E0089586E090E0089587E090E00895DB
:1001300088E090E0089589E090E0089580E090E004
:10014000089580E090E0089580E090E00895CF93D6
:10015000DF93CDB7DEB764970FB6F894DEBF0FBE5E
:10016000CDBF84E1E0E0F1E0DE01119601900D9257
:100170008A95E1F788EF8ABB8FEF81BB9DDF880FFF
:10018000991FE1E0F0E0EC0FFD1FE80FF91F8081FF
:0801900082BBF4CFF894FFCF0D
:100198003F0006005B004F0066006D007D00070011
:0401A8007F006F0065
:00000001FF
