:1000000045C0000060C000005EC000005CC0000091
:100010005AC0000007C300001BC3000054C000000A
:1000200052C0000050C000004EC000004CC0000094
:100030004AC0000048C0000046C0000044C00000A4
:1000400042C0000040C000003EC000003CC00000B4
:100050003AC0000038C0000036C0000034C00000C4
:1000600032C0000030C000002EC000002CC00000D4
:100070002AC0000028C0000026C0000024C00000E4
:1000800022C0000020C000001EC0000011241FBEBE
:10009000CFEFD0E1DEBFCDBF11E0A0E0B1E0E8E6F8
:1000A000FBE000E00BBF02C007900D92A237B10742
:1000B000D9F721E0A2E7B1E001C01D92A638B2074E
:1000C000E1F728D24FC59CCF80EF89BF8AEA8ABF6B
:1000D0007894089520E030E012C0C901880F991F7C
:1000E000FC01EE5FFE4F40815181FC01E258FE4F62
:1000F000808191814817590741F42F5F3F4F243089
:1001000031055CF380E090E002C081E090E0892B53
:1001100049F48091780190917901059731F480E05C
:1001200090E0089580E090E0089581E090E00895E7
:1001300080E090E00BC0FC01EE0FFF1FE258FE4F85
:10014000208131812336310539F0019684309105C3
:1001500094F380E090E002C081E090E0892B49F4C4
:100160008091780190917901059731F480E090E0D9
:10017000089580E090E0089581E090E0089564D4CF
:1001800010920101109200016DD3E1C3089574D45F
:1001900081E090E0909301018093000182D303C439
:1001A000089580E090E008C0FC01EE0FFF1FE258C8
:1001B000FE4F11821082019684309105ACF31092AB
:1001C0007901109278018CE090E090937D0180930A
:1001D0007C018FD396C3089588D38CE090E09093F0
:1001E000750180937401109277011092760146D2C6
:1001F00090937D0180937C018C30910509F044C07F
:100200008091760190917701892B99F12091740169
:10021000309175012A30310511F4C3CF08952B3088
:10022000310541F457DF892B11F0A9DF01C0E6D376
:10023000B8CF08958091780190917901AC01445034
:1002400051094230510538F485E090E090937901EE
:1002500080937801CCCFAC014F5F5F4F5093790111
:1002600040937801880F991FFC01E258FE4F3183BB
:1002700020838CE090E0909375018093740110923C
:10028000770110927601B3CF90937501809374013A
:1002900081E090E09093770180937601A8CF8CE085
:1002A00090E0909375018093740110927701109201
:1002B000760180E090E00AC0FC01EE0FFF1FE258DB
:1002C000FE4F23E630E03183208301968430910590
:1002D0009CF3D4D190937D0180937C018C30910567
:1002E00009F05BC08091760190917701892B09F428
:1002F00049C020917401309175012A30310511F403
:1003000050CF08952B303105F1F412DF892B89F499
:1003100017C0C901880F991FFC01E258FE4F4081A8
:100320005181FC01EE5FFE4F518340832F5F3F4FB1
:1003300002C020E030E0243031055CF308D301C076
:100340005DD32FCF08958091780190917901AC0110
:10035000445051094230510538F485E090E09093C3
:10036000790180937801B5CFAC014F5F5F4F509317
:10037000790140937801880F991FFC01E258FE4FE4
:10038000318320838CE090E0909375018093740119
:1003900010927701109276019CCF90937501809313
:1003A000740181E090E0909377018093760191CF82
:1003B0000F931F93CF93DF93CDB7DEB7A5970FB6FB
:1003C000F894DEBF0FBECDBF81E1E5E5F1E0DE01CF
:1003D000119601900D928A95E1F71B8A1A8AFE0107
:1003E000749682E1DF011D928A95E9F71BB888E1D6
:1003F0008AB986E0809395001092900083E089B9D5
:100400008091000190910101892B71F58DE0E6E169
:10041000F1E0DE01529601900D928A95E1F7CE014E
:10042000429649D35AD390E08D30910571F48BE018
:10043000E3E2F1E0DE01529601900D928A95E1F738
:10044000CE01429638D3A3DEDBCF4B9759F786E136
:10045000EEE2F1E0DE01529601900D928A95E1F70D
:10046000CE01429628D34BC0CE01019624D300E0A2
:1004700010E023C032D390E08B31910591F491DEEE
:1004800010927B0110927A0186E1EEE2F1E0DE014A
:10049000529601900D928A95E1F7CE0142960BD3C8
:1004A0002EC0C097F801EE0FFF1FE258FE4F918358
:1004B00080838AE2F9D20F5F1F4F04301105D4F216
:1004C00009DE892B71F05BDE89E0E4E4F1E0DE0116
:1004D000529601900D928A95E1F7CE014296EBD2A9
:1004E0008FCF8CD288E0EDE4F1E0DE0152960190EE
:1004F0000D928A95E1F7CE014296DDD281CFA59685
:100500000FB6F894DEBF0FBECDBFDF91CF911F9124
:100510000F91089509D290D2C4D1D6DDE2D1F8D19D
:10052000FFD180917A0190917B018130910509F092
:100530006FC0EBD1A3D090937D0180937C018C3070
:10054000910561F58091760190917701892B91F366
:1005500080917401909175018A30910501F38B307F
:10056000910551F48091000190910101892B11F4C2
:100570000EDE09C031DE07C00D9729F41092730119
:10058000109272018CDE8CE090E090937501809364
:1005900074011092770110927601CCCF8A309105C8
:1005A00039F58091760190917701892BA1F08091A6
:1005B0007201909173018932910544F09ED18DE0D2
:1005C00090E09093750180937401B4CF019690935D
:1005D0007301809372018AE090E09093750180939B
:1005E000740181E090E09093770180937601A2CF2F
:1005F0000B9709F09FCF8BE090E09093750180936B
:10060000740181E090E0909377018093760192CF1E
:10061000029709F084CF80D1CBDE10927B0110923B
:100620007A017DCF1F920F920FB60F9211248F93F4
:100630009F93F89481E090E090937B0180937A01FE
:1006400078949F918F910F900FBE0F901F901895E7
:100650001F920F920FB60F9211248F939F93F894CD
:1006600082E090E090937B0180937A0178949F914F
:100670008F910F900FBE0F901F90189588EF8ABB37
:1006800088E08BBB82E497E00197F1F7C89947C0F7
:10069000C99948C0CA9949C01BBA85E998E401972D
:1006A000F1F700C0000080E18BBB82E497E0019786
:1006B000F1F7C8993DC0C9993EC0CA993FC01BBA5D
:1006C00085E998E40197F1F700C0000080E28BBB58
:1006D00082E497E00197F1F7C89933C0C99934C013
:1006E000CA9935C01BBA85E998E40197F1F700C0B3
:1006F000000080E48BBB82E497E00197F1F7C89992
:1007000029C0C9992AC0CA992BC01BBA85E998E4A7
:100710000197F1F700C000008CE090E0089581E0BF
:1007200090E0089582E090E0089583E090E00895DD
:1007300084E090E0089585E090E0089586E090E000
:10074000089587E090E0089588E090E0089589E0BA
:1007500090E008958AE090E0089580E090E00895A8
:100760008BE090E00895E5E6F0E090819160908361
:1007700090819D7F90839081946090839BE79A9570
:10078000F1F785BB8BE78A95F1F780818B7F8083BA
:100790000895E5E6F0E090819E7F908390819D7FB3
:1007A00090839081946090839BE79A95F1F785BB45
:1007B0008BE78A95F1F780818B7F80830895D3DF63
:1007C00083E397E00197F1F70895CF93DF93EC016E
:1007D00002C0F5DF219688818111FBCFDF91CF9197
:1007E000089590E4899F600D1124862F8068D1DFE1
:1007F0008FEF97E40197F1F700C00000089581E0C2
:10080000C8DF8FEF97E40197F1F700C0000008956B
:100810008FEF84BB8FE08093640088E3BADF86E6C5
:100820009EE00197F1F7000088E3B3DF86E69EE0E3
:100830000197F1F7000088E3ACDF86E69EE00197C0
:10084000F1F700008CE0A5DF86E69EE00197F1F766
:10085000000086E09EDF86E69EE00197F1F700004B
:10086000CECF0895CF93DF9300D000D01F92CDB7A5
:10087000DEB785E0E6E6F1E0DE01119601900D922B
:100880008A95E1F7C5DF60E080E0ABDFCE0101963D
:100890009CDF0F900F900F900F900F90DF91CF91F2
:1008A0000895CF93DF9300D000D000D0CDB7DEB74E
:1008B00086E0EBE6F1E0DE01119601900D928A955B
:1008C000E1F7A6DF60E080E08CDFCE0101967DDFFE
:1008D00026960FB6F894DEBF0FBECDBFDF91CF9145
:1008E000089587B38F6087BB089588B3846088BB01
:1008F000089588B38B7F88BB089588B3886088BBD0
:10090000089588B3877F88BB089581E088BB0895E8
:1009100088B38E7F88BB089588B3826088BB0895B2
:1009200088B38D7F88BB089588E082B910928B00D0
:1009300089E180938A0010928C00109289001092B5
:1009400088008FEF8ABF80EF89BF88BF0895CF935B
:10095000DF93C0E0D0E021C0FE01EE0FFF1FE65F95
:10096000FE4F2081318140E050E060E070E488E398
:1009700090E0BAD03093810020938000EBE8F0E063
:1009800080E480832FEF8FE794E0215080409040F7
:10099000E1F700C0000010822196C430D105E4F2D6
:1009A000DF91CF910895CF93DF93C3E0D0E021C0D2
:1009B000FE01EE0FFF1FE65FFE4F2081318140E018
:1009C00050E060E070E488E390E08ED030938100E6
:1009D00020938000EBE8F0E080E480832FEF8FE746
:1009E00094E0215080409040E1F700C00000108268
:1009F0002197DD23ECF6DF91CF91089520910E0130
:100A000030910F0140E050E060E070E488E390E056
:100A10006BD03093810020938000EBE8F0E080E41D
:100A200080832FEF8FE39BE0215080409040E1F7DF
:100A300000C000001082089580E287BB80EF81BB78
:100A400088B38F7D88BB089580E090E012C0E82FC6
:100A5000F0E0EE5EFE4F208122BB833011F08F5F0D
:100A600001C080E0EFEFF7E43197F1F700C000003C
:100A70009F5F983160F3089583E090E012C0E82F03
:100A8000F0E0EE5EFE4F208122BB882311F0815002
:100A900001C083E0EFEFF7E43197F1F700C0000009
:100AA0009F5F983160F308955D9BFECF8CB98BB149
:100AB00080628BB908950F931F93CF938C01C0E090
:100AC00002C0CF5FF1DFF801EC0FF11D80818111D1
:100AD000F8CFCF911F910F9108955F9BFECF8CB1FE
:100AE0009BB190689BB90895052E97FB16F400946E
:100AF0000FD057FD05D014D007FC02D046F408C033
:100B000050954095309521953F4F4F4F5F4F089539
:100B100090958095709561957F4F8F4F9F4F089569
:100B2000A1E21A2EAA1BBB1BFD010DC0AA1FBB1FF1
:100B3000EE1FFF1FA217B307E407F50720F0A21B63
:100B4000B30BE40BF50B661F771F881F991F1A94D0
:100B500069F760957095809590959B01AC01BD01FA
:080B6000CF010895F894FFCFC6
:100B6800010002000500080000000B0293020F03B9
:100B78001604102040800D0A554E4C4F434B4544F7
:100B88000D0A000D0A4C4F434B45440D0A000D0A4F
:100B98004B6579426F617264204D6F6465204F66C2
:100BA800660D0A000D0A4F50454E0D0A000D0A4504
:100BB80052520D0A000D0A696E70757420706C65CA
:100BC8006173650D0A004F50454E00434C4F534525
:020BD80000001B
:00000001FF
